{
  "_format": "hh-sol-artifact-1",
  "contractName": "WavePortal",
  "sourceName": "contracts/WavePortal.sol",
  "abi": [
    {
      "inputs": [],
      "stateMutability": "payable",
      "type": "constructor"
    },
    {
      "anonymous": false,
      "inputs": [
        {
          "indexed": true,
          "internalType": "address",
          "name": "from",
          "type": "address"
        },
        {
          "indexed": false,
          "internalType": "uint256",
          "name": "timestamp",
          "type": "uint256"
        },
        {
          "indexed": false,
          "internalType": "string",
          "name": "message",
          "type": "string"
        }
      ],
      "name": "NewWave",
      "type": "event"
    },
    {
      "inputs": [],
      "name": "getAllWaves",
      "outputs": [
        {
          "components": [
            {
              "internalType": "address",
              "name": "waver",
              "type": "address"
            },
            {
              "internalType": "string",
              "name": "message",
              "type": "string"
            },
            {
              "internalType": "uint256",
              "name": "timestamp",
              "type": "uint256"
            }
          ],
          "internalType": "struct WavePortal.Wave[]",
          "name": "",
          "type": "tuple[]"
        }
      ],
      "stateMutability": "view",
      "type": "function"
    },
    {
      "inputs": [],
      "name": "getTotalWaves",
      "outputs": [
        {
          "internalType": "uint256",
          "name": "",
          "type": "uint256"
        }
      ],
      "stateMutability": "view",
      "type": "function"
    },
    {
      "inputs": [
        {
          "internalType": "string",
          "name": "_message",
          "type": "string"
        }
      ],
      "name": "wave",
      "outputs": [],
      "stateMutability": "nonpayable",
      "type": "function"
    }
  ],
  "bytecode": "0x60806040526200004f6040518060400160405280601581526020017f636f6e7472616374206372656174696f6e206d736700000000000000000000008152506200008660201b620006301760201c565b606460015442446200006291906200018b565b6200006e91906200018b565b6200007a9190620001f5565b600181905550620002eb565b62000126816040516024016200009d9190620002c7565b6040516020818303038152906040527f41304fac000000000000000000000000000000000000000000000000000000007bffffffffffffffffffffffffffffffffffffffffffffffffffffffff19166020820180517bffffffffffffffffffffffffffffffffffffffffffffffffffffffff83818316178352505050506200012960201b60201c565b50565b60008151905060006a636f6e736f6c652e6c6f679050602083016000808483855afa5050505050565b6000819050919050565b7f4e487b7100000000000000000000000000000000000000000000000000000000600052601160045260246000fd5b6000620001988262000152565b9150620001a58362000152565b9250828201905080821115620001c057620001bf6200015c565b5b92915050565b7f4e487b7100000000000000000000000000000000000000000000000000000000600052601260045260246000fd5b6000620002028262000152565b91506200020f8362000152565b925082620002225762000221620001c6565b5b828206905092915050565b600081519050919050565b600082825260208201905092915050565b60005b83811015620002695780820151818401526020810190506200024c565b60008484015250505050565b6000601f19601f8301169050919050565b600062000293826200022d565b6200029f818562000238565b9350620002b181856020860162000249565b620002bc8162000275565b840191505092915050565b60006020820190508181036000830152620002e3818462000286565b905092915050565b6113a080620002fb6000396000f3fe608060405234801561001057600080fd5b50600436106100415760003560e01c8063449d46c0146100465780639a2cdc0814610062578063bd43a90814610080575b600080fd5b610060600480360381019061005b9190610a23565b61009e565b005b61006a610494565b6040516100779190610a85565b60405180910390f35b6100886104df565b6040516100959190610c81565b60405180910390f35b42610384600260003373ffffffffffffffffffffffffffffffffffffffff1673ffffffffffffffffffffffffffffffffffffffff168152602001908152602001600020546100ec9190610cd2565b1061012c576040517f08c379a000000000000000000000000000000000000000000000000000000000815260040161012390610d63565b60405180910390fd5b42600260003373ffffffffffffffffffffffffffffffffffffffff1673ffffffffffffffffffffffffffffffffffffffff1681526020019081526020016000208190555060016000808282546101829190610cd2565b925050819055506101c96040518060400160405280601681526020017f257320776176656420772f206d6573736167652025730000000000000000000081525033836106c9565b600360405180606001604052803373ffffffffffffffffffffffffffffffffffffffff16815260200183815260200142815250908060018154018082558091505060019003906000526020600020906003020160009091909190915060008201518160000160006101000a81548173ffffffffffffffffffffffffffffffffffffffff021916908373ffffffffffffffffffffffffffffffffffffffff16021790555060208201518160010190816102819190610f8f565b506040820151816002015550506064600154424461029f9190610cd2565b6102a99190610cd2565b6102b39190611090565b6001819055506102fa6040518060400160405280601581526020017f52616e646f6d20232067656e6572616465642025640000000000000000000000815250600154610768565b60326001541015610441576103446040518060400160405280600981526020017f256420697320776f6e000000000000000000000000000000000000000000000081525033610804565b6000655af3107a4000905047811115610392576040517f08c379a000000000000000000000000000000000000000000000000000000000815260040161038990611133565b60405180910390fd5b60003373ffffffffffffffffffffffffffffffffffffffff16826040516103b890611184565b60006040518083038185875af1925050503d80600081146103f5576040519150601f19603f3d011682016040523d82523d6000602084013e6103fa565b606091505b505090508061043e576040517f08c379a00000000000000000000000000000000000000000000000000000000081526004016104359061120b565b60405180910390fd5b50505b3373ffffffffffffffffffffffffffffffffffffffff167f5f7e16dc676677766a70e9c5628aa6c54ddb8b6e5188e2ae1e1f17f1ffbea7164283604051610489929190611264565b60405180910390a250565b60006104d76040518060400160405280601781526020017f5765206861766520256420746f74616c20776176657321000000000000000000815250600054610768565b600054905090565b60606003805480602002602001604051908101604052809291908181526020016000905b8282101561062757838290600052602060002090600302016040518060600160405290816000820160009054906101000a900473ffffffffffffffffffffffffffffffffffffffff1673ffffffffffffffffffffffffffffffffffffffff1673ffffffffffffffffffffffffffffffffffffffff16815260200160018201805461058c90610db2565b80601f01602080910402602001604051908101604052809291908181526020018280546105b890610db2565b80156106055780601f106105da57610100808354040283529160200191610605565b820191906000526020600020905b8154815290600101906020018083116105e857829003601f168201915b5050505050815260200160028201548152505081526020019060010190610503565b50505050905090565b6106c6816040516024016106449190611294565b6040516020818303038152906040527f41304fac000000000000000000000000000000000000000000000000000000007bffffffffffffffffffffffffffffffffffffffffffffffffffffffff19166020820180517bffffffffffffffffffffffffffffffffffffffffffffffffffffffff83818316178352505050506108a0565b50565b6107638383836040516024016106e1939291906112c5565b6040516020818303038152906040527fe0e9ad4f000000000000000000000000000000000000000000000000000000007bffffffffffffffffffffffffffffffffffffffffffffffffffffffff19166020820180517bffffffffffffffffffffffffffffffffffffffffffffffffffffffff83818316178352505050506108a0565b505050565b610800828260405160240161077e92919061130a565b6040516020818303038152906040527fb60e72cc000000000000000000000000000000000000000000000000000000007bffffffffffffffffffffffffffffffffffffffffffffffffffffffff19166020820180517bffffffffffffffffffffffffffffffffffffffffffffffffffffffff83818316178352505050506108a0565b5050565b61089c828260405160240161081a92919061133a565b6040516020818303038152906040527f319af333000000000000000000000000000000000000000000000000000000007bffffffffffffffffffffffffffffffffffffffffffffffffffffffff19166020820180517bffffffffffffffffffffffffffffffffffffffffffffffffffffffff83818316178352505050506108a0565b5050565b60008151905060006a636f6e736f6c652e6c6f679050602083016000808483855afa5050505050565b6000604051905090565b600080fd5b600080fd5b600080fd5b600080fd5b6000601f19601f8301169050919050565b7f4e487b7100000000000000000000000000000000000000000000000000000000600052604160045260246000fd5b610930826108e7565b810181811067ffffffffffffffff8211171561094f5761094e6108f8565b5b80604052505050565b60006109626108c9565b905061096e8282610927565b919050565b600067ffffffffffffffff82111561098e5761098d6108f8565b5b610997826108e7565b9050602081019050919050565b82818337600083830152505050565b60006109c66109c184610973565b610958565b9050828152602081018484840111156109e2576109e16108e2565b5b6109ed8482856109a4565b509392505050565b600082601f830112610a0a57610a096108dd565b5b8135610a1a8482602086016109b3565b91505092915050565b600060208284031215610a3957610a386108d3565b5b600082013567ffffffffffffffff811115610a5757610a566108d8565b5b610a63848285016109f5565b91505092915050565b6000819050919050565b610a7f81610a6c565b82525050565b6000602082019050610a9a6000830184610a76565b92915050565b600081519050919050565b600082825260208201905092915050565b6000819050602082019050919050565b600073ffffffffffffffffffffffffffffffffffffffff82169050919050565b6000610af782610acc565b9050919050565b610b0781610aec565b82525050565b600081519050919050565b600082825260208201905092915050565b60005b83811015610b47578082015181840152602081019050610b2c565b60008484015250505050565b6000610b5e82610b0d565b610b688185610b18565b9350610b78818560208601610b29565b610b81816108e7565b840191505092915050565b610b9581610a6c565b82525050565b6000606083016000830151610bb36000860182610afe565b5060208301518482036020860152610bcb8282610b53565b9150506040830151610be06040860182610b8c565b508091505092915050565b6000610bf78383610b9b565b905092915050565b6000602082019050919050565b6000610c1782610aa0565b610c218185610aab565b935083602082028501610c3385610abc565b8060005b85811015610c6f5784840389528151610c508582610beb565b9450610c5b83610bff565b925060208a01995050600181019050610c37565b50829750879550505050505092915050565b60006020820190508181036000830152610c9b8184610c0c565b905092915050565b7f4e487b7100000000000000000000000000000000000000000000000000000000600052601160045260246000fd5b6000610cdd82610a6c565b9150610ce883610a6c565b9250828201905080821115610d0057610cff610ca3565b5b92915050565b600082825260208201905092915050565b7f77616974203135206d696e757465730000000000000000000000000000000000600082015250565b6000610d4d600f83610d06565b9150610d5882610d17565b602082019050919050565b60006020820190508181036000830152610d7c81610d40565b9050919050565b7f4e487b7100000000000000000000000000000000000000000000000000000000600052602260045260246000fd5b60006002820490506001821680610dca57607f821691505b602082108103610ddd57610ddc610d83565b5b50919050565b60008190508160005260206000209050919050565b60006020601f8301049050919050565b600082821b905092915050565b600060088302610e457fffffffffffffffffffffffffffffffffffffffffffffffffffffffffffffffff82610e08565b610e4f8683610e08565b95508019841693508086168417925050509392505050565b6000819050919050565b6000610e8c610e87610e8284610a6c565b610e67565b610a6c565b9050919050565b6000819050919050565b610ea683610e71565b610eba610eb282610e93565b848454610e15565b825550505050565b600090565b610ecf610ec2565b610eda818484610e9d565b505050565b5b81811015610efe57610ef3600082610ec7565b600181019050610ee0565b5050565b601f821115610f4357610f1481610de3565b610f1d84610df8565b81016020851015610f2c578190505b610f40610f3885610df8565b830182610edf565b50505b505050565b600082821c905092915050565b6000610f6660001984600802610f48565b1980831691505092915050565b6000610f7f8383610f55565b9150826002028217905092915050565b610f9882610b0d565b67ffffffffffffffff811115610fb157610fb06108f8565b5b610fbb8254610db2565b610fc6828285610f02565b600060209050601f831160018114610ff95760008415610fe7578287015190505b610ff18582610f73565b865550611059565b601f19841661100786610de3565b60005b8281101561102f5784890151825560018201915060208501945060208101905061100a565b8683101561104c5784890151611048601f891682610f55565b8355505b6001600288020188555050505b505050505050565b7f4e487b7100000000000000000000000000000000000000000000000000000000600052601260045260246000fd5b600061109b82610a6c565b91506110a683610a6c565b9250826110b6576110b5611061565b5b828206905092915050565b7f747279696e6720746f207769746864726177206d6f7265206d6f6e657920746860008201527f61742074686520636f6e74726163742068617300000000000000000000000000602082015250565b600061111d603383610d06565b9150611128826110c1565b604082019050919050565b6000602082019050818103600083015261114c81611110565b9050919050565b600081905092915050565b50565b600061116e600083611153565b91506111798261115e565b600082019050919050565b600061118f82611161565b9150819050919050565b7f4661696c656420746f207769746864726177206d6f6e65792066726f6d20636f60008201527f6e74726163740000000000000000000000000000000000000000000000000000602082015250565b60006111f5602683610d06565b915061120082611199565b604082019050919050565b60006020820190508181036000830152611224816111e8565b9050919050565b600061123682610b0d565b6112408185610d06565b9350611250818560208601610b29565b611259816108e7565b840191505092915050565b60006040820190506112796000830185610a76565b818103602083015261128b818461122b565b90509392505050565b600060208201905081810360008301526112ae818461122b565b905092915050565b6112bf81610aec565b82525050565b600060608201905081810360008301526112df818661122b565b90506112ee60208301856112b6565b8181036040830152611300818461122b565b9050949350505050565b60006040820190508181036000830152611324818561122b565b90506113336020830184610a76565b9392505050565b60006040820190508181036000830152611354818561122b565b905061136360208301846112b6565b939250505056fea2646970667358221220c3bbdae48b7c2f87a00f1b8fecba54cbdfa7e5768b3e0ff764cdf2a4fa2162b064736f6c63430008110033",
  "linkReferences": {},
  "deployedLinkReferences": {}
}